:020000040800F2
:10000000384E002001010008391F0008FF0F0008CA
:10001000EB1E00080B0B0008A530000800000000D4
:10002000000000000000000000000000F52C0008A7
:10003000410B000800000000E9280008092E000814
:100040001B0100081B0100081B0100081B01000820
:100050001B0100081B0100081B0100081B01000810
:100060001B0100081B0100081B0100081B01000800
:100070001B0100081B0100081B0100081B010008F0
:100080001B0100081B0100081B0100081B010008E0
:100090001B0100081B0100081B0100081B010008D0
:1000A0001B0100081B0100081B0100081B010008C0
:1000B0001B0100081B0100081B0100081B010008B0
:1000C0001B0100081B0100081B0100081B010008A0
:1000D0001B010008792E0008952E00081B0100085E
:1000E0001B0100081B0100081B010008DFF80CD0F1
:1000F00000F0B6FC00480047A5440008384E002038
:100100000648804706480047FEE7FEE7FEE7FEE7B1
:10011000FEE7FEE7FEE7FEE7FEE7FEE70D2E00083E
:10012000ED00000840EA01039B0703D009E008C97D
:10013000121F08C0042AFAD203E011F8013B00F8AC
:10014000013B521EF9D2704710B5002200E0521C4C
:10015000835C8C5CA34201D1002BF8D1D8B2E1B210
:10016000401A10BDF0B480EA0102D40F4200B2EB95
:10017000410F02D20246084611464A0042D0C30D42
:10018000DDB2C1F3C752AD1A202D35DAC1F3160125
:1001900041F4000204B15242C5F1200602FA06F110
:1001A0002A411044B3EBD05F23D0C4B1012DA0EBA2
:1001B000C35009DCF0BC4FF0004202EAC352DBB28C
:1001C00000F5000000F08BBB400000F1807000EBF8
:1001D000C350A0F1807040EAD170490009E049089D
:1001E00041EAC071A0EBC35000F50000400800EBED
:1001F000C350F0BC00F06ABB6142012202EB410136
:10020000001BF6E7F0BC704781F00041AAE780F0E0
:100210000040A7E780EA010210B502F00043400069
:1002200022D04A001FD0010E01EB1261C0F356002C
:10023000C2F3560240F4000042F40002A0FB022088
:1002400000047F39140400D0401C50EA124001D44D
:100250004000491EC2B20C0604EBD010401C4008FE
:10026000802A02D003E0002010BD20F00100002908
:1002700000DA0020184310BD30B480EA010202F019
:10028000004530F0004221F0004013D090B1C30D82
:10029000D40DC2F31601C0F31600E41A41F40001B4
:1002A00040F400027D34914201D3641C00E0490017
:1002B000002C02DA30BC002070474FF4000000230D
:1002C000914201D3891A034340084FEA4101F7D113
:1002D00051B1914202D14FF0004105E002D24FF0FE
:1002E000010101E06FF0010103EBC450284430BC70
:1002F00000F0ECBA2DE9FE4F804681EA0300C00F02
:100300000C46009021F0004123F00045B8EB0200BC
:10031000A94105D24046214690461C460B4602465E
:1003200023F00040104347D0270DC7F30A00C3F362
:100330000A510290401A019040286BDAC3F313006F
:1003400040F4801B0098924620B10023D2EB030AB0
:1003500063EB0B0B01985946C0F14002504600F088
:1003600038FA06460D4650465946019A00F050FAB2
:1003700010EB08006141002487EA115284EAE77318
:100380001A4340D0009A62B3019A012A4FEA0752F9
:1003900015DC001B61EB02014FF0004202EA07523C
:1003A000CDE90042001C41F5801132462B4600F099
:1003B000F1FA03B0BDE8F08F40462146F9E7001B93
:1003C00061EB0201001C41F5801300185B4120180D
:1003D000A2F5001747EB030140EAD570B6196D414D
:1003E00011E06D084FEA360645EAC0754FEA07523C
:1003F000001B61EB0201001C41F5801149084FEA26
:1004000030000019514132462B4603B0BDE8F04F91
:1004100000F0B1BA0098012240000023D0EB0202A4
:1004200063EBE073009821464FEAE074B8EB0000FC
:1004300061EB0401E9E783F000435BE781F00041F1
:1004400058E72DE9FE4F81EA030404F0004421F04F
:10045000004100944FF0000B23F0004350EA0104E8
:100460005ED052EA03045BD0C3F30A54C1F30A55C9
:100470002C44A4F2F3340194A0FB0254C1F3130101
:1004800041F48011C3F3130343F4801301FB0244CE
:1004900000FB034E840A970A44EA815447EA8357D3
:1004A000A4FB076802958D0A05FB07854FEA932C8C
:1004B00004FB0C542705029D4FEA065847EA1637FD
:1004C000B5EB08056EEB070C870E920E47EA811715
:1004D00042EA8312A7FB0201B6EB0B0164EB0004B6
:1004E0002B0D43EA0C335E1844EB1C50DA465146A0
:1004F000E7FB0201C5F313044FEA0B3343EA14533D
:100500004FEA0432019C43EA0603A4F10C0402946E
:10051000009CCDE900B400F03DFA03B0BDE8F08FD7
:1005200000200146F9E72DE9F04D81EA030404F0CB
:10053000004B21F0004514464FF0000A23F0004123
:1005400050EA050220D054EA01021DD0C5F30A5733
:100550000246C5F31303C1F31300C1F30A5640F476
:10056000801543F48013A7EB0608101BD64608F24B
:10057000FD3873EB050002D308F1010801E0921881
:100580005B41B8F1000F03DA00200146BDE8F08DB1
:1005900000204FF48011064684460EE0171B73EBD3
:1005A000050705D3121B63EB050306434CEA010C58
:1005B00049084FEA300092185B4150EA0107EDD13B
:1005C00052EA030012D082EA040083EA05010843DC
:1005D00005D0101BAB4106D20122002306E0002209
:1005E0004FF0004302E06FF0010253101AEB0600D7
:1005F0004CEB085110EB0A0041EB0B01BDE8F04D4C
:1006000000F0B9B9C10F80EAE0700844CA07962328
:10061000002100F064B996230022114600F05FB972
:100620000EB5C10F80EAE0700844CA07002140F20D
:1006300033438DE80E000A460B4600F0ABF903B0D9
:1006400000BD0EB540F2334102910021CDE9001109
:100650000A460B4600F09EF903B000BD00F00042D0
:1006600020F00040C10DC0F3160040F400007F29C7
:1006700001DA00207047962903DCC1F19601C840D9
:1006800001E096398840002AF4D04042704700F0DB
:10069000004230F000400AD0C10D01F56071C0F396
:1006A000160042EA0151C20840071143704700207A
:1006B0000146704730B5041E71F1000404DB4FF0B1
:1006C0000044404264EB0101141E73F1000405DB99
:1006D0001C464FF00043524263EB0403994208BFAB
:1006E000904230BD01F0004330B421F0004150EAA7
:1006F000010206D00A0DA2F56072C1F31301002AAF
:1007000002DC30BC00207047440F44EAC104C10041
:10071000E01830BC00EBC25000F0D8B8002801DB74
:10072000C0F10040002901DBC1F100418142704766
:10073000002801DBC0F10040002901DBC1F10041CC
:100740008842704730B50B46014600202022012424
:1007500009E021FA02F59D4205D303FA02F5491B8F
:1007600004FA02F52844151EA2F10102F1DC30BDA5
:100770002DE9F05F0546002092469B4688460646D6
:10078000814640241BE0284641464746224600F069
:100790002FF853465A46C01A914110D311461846B5
:1007A000224600F016F82D1A67EB01084F46224644
:1007B0000120002100F00DF817EB00094E41201E2A
:1007C000A4F10104DFDC484631462A464346BDE831
:1007D000F09F202A04DB203A00FA02F10020704743
:1007E0009140C2F1200320FA03F31943904070476F
:1007F000202A04DB203A21FA02F00021704721FA76
:1008000002F3D040C2F120029140084319467047DC
:10081000202A06DBCB17203A41FA02F043EAE073C4
:1008200006E041FA02F3D040C2F1200291400843B1
:1008300019467047014900F003B800000C2E002053
:1008400010B500683C22B0FBF2F302FB1303B0FBCF
:10085000F2F00B60B0FBF2F302FB1303B0FBF2F01B
:1008600018224B60B0FBF2F302FB1303B0FBF2F073
:10087000021D8B600723B2FBF3F403FB14228000FC
:1008800040F2B55300F66C308A61B0FBF3F2B0FB76
:10089000F3F403FB1400443280084A61C8613B282A
:1008A00002D3920700D0401C0022074C13460A6175
:1008B000E25C824203D8801A5B1C0B61F8E7401CA3
:1008C000C860084610BD0000B87000080029A8BF25
:1008D0007047401C490008BF20F00100704710B469
:1008E000B0FA80FC00FA0CF050EA010404BF10BC1E
:1008F000704749B1CCF1200421FA04F411FA0CF14B
:1009000018BF012121430843A3EB0C01CB1D4FEA83
:1009100000614FEA102042BF002010BC704700EB7E
:10092000C35010440029A4BF10BC7047401C4900AC
:1009300008BF20F0010010BC704710B541000CD07A
:10094000C0F3C751962908DC7E2909DC06DB410289
:1009500004D000F0004040F07E5010BD002010BDDB
:10096000C1F19604C4F1200100FA01F1E040FFF763
:10097000ADFFA04010BD10B5141E73F1000408DADD
:10098000401C41F1000192185B411A4301D120F053
:10099000010010BD2DE9F04D92469B4611B1B1FA10
:1009A00081F202E0B0FA80F220329046FFF711FFA8
:1009B00004460F4640EA0A0041EA0B0153465A46F4
:1009C000084313D0114653EA010019D0C8F1400280
:1009D0005046FFF70DFF05460E4650465946424623
:1009E000FFF7F7FE084305D0012004E02046394612
:1009F000BDE8F08D0020054346EAE0762C433743FE
:100A00000A986305E40AA0EB08000022FD0A44EA04
:100A100047540A3002D500200146E9E701051019C4
:100A20006941DDE9084500196941BDE8F04DA2E7DB
:100A3000C1F30A52C1F3130140F2FF3341F48011B4
:100A40009A4202DA00200146704740F233439A424C
:100A5000A2F2334202DC5242FFF7CABEFFF7B9BE30
:100A6000064C074D06E0E06840F0010394E80700FB
:100A700098471034AC42F6D3FFF73CFB7472000881
:100A800094720008420005D0C0F3C752524291420E
:100A900001DC0020704700EBC150704770B521F0B9
:100AA000004303430CD0C1F30A550024D5EB0405E1
:100AB00064EB0403D617AD1AB34102DB00200146F4
:100AC00070BD201841EB025170BD000010B510211F
:100AD000014800F08DFA10BD0008014010B510214A
:100AE000014800F083FA10BD00080140F8B5044643
:100AF0000D4602F0C5FB06466A462946204602F02E
:100B0000FBFBC82003F04CFCF8BD00BFFEE7000073
:100B100008B50121042001F0F9FE10208DF8030032
:100B2000ADF8000003208DF802006946034800F08C
:100B3000C9F91021014800F05BFA08BD0008014026
:100B40007047000008B50121042001F0DFFE1020ED
:100B50008DF803008002ADF8000003208DF802003C
:100B60006946434800F0AEF900224FF48041404806
:100B700000F040FA4FF4FA7003F012FC01229103E6
:100B80003B4800F037FA4FF4FA7003F009FC0522F5
:100B900038A13A4802F05AFB41F2883003F000FCD9
:100BA000082237A1354802F051FB41F2883003F0AA
:100BB000F7FB0D2235A1314802F048FB41F28830A5
:100BC00003F0EEFB0F2235A12C4802F03FFB41F26F
:100BD000883003F0E5FB1C2234A1284802F036FBE4
:100BE00041F2883003F0DCFB0E2238A1234802F0EA
:100BF0002DFB41F2883003F0D3FB282237A11F4898
:100C000002F024FB40A308220A21012001F0BFFBCF
:100C100001F0BAFD41F2883003F0C2FB01F0A6FA00
:100C200001F0B2FD0C223DA1144802F00FFB3FA3DE
:100C300008220A21012001F0AAFB01F0A5FD41F2E2
:100C4000883003F0ADFB01F09FFD01F08FFA3CA36B
:100C500008220A21012001F09AFB01F095FD4FF4D2
:100C60007A7003F09DFB01F081FA002008BD0000BE
:100C7000001001406141540D0A0000000044004092
:100C800041542B5253540D0A0000000041542B4391
:100C9000574D4F44453D310D0A00000041542B4350
:100CA00057444843503D312C310D0A0041542B43E9
:100CB000574A41503D227A6D78222C22313233340A
:100CC0003536373839220D0A0000000041542B43D5
:100CD00049504D4F44453D310D0A000041542B43CE
:100CE000495053544152543D22544350222C2277B0
:100CF00077772E62656D66612E636F6D222C3833B7
:100D000034340D0A00000000E8BF9EE68EA5E4BA68
:100D100091E5B9B3E58FB0204F4B210041542B43EF
:100D2000495053454E440D0A00000000E9808FE40D
:100D3000BCA0E6A8A1E5BC8F204F4B21000000001D
:100D40004553503832363620496E6974204F4B2E49
:100D50002E2E000070B592B007A908A8FFF7C6FEB6
:100D600002F084F8064605A906A800F0E5FC0FAAE3
:100D700010A911A800F07CFF0CAA0DA90EA800F084
:100D80009AFF09A80AA90BAABDF93030CDE90132B2
:100D9000CDE90310BDF934000090BDF93830BDF93C
:100DA0003C20BDF94010BDF9440000F03FFE2B4946
:100DB0000A98FFF7B3FC0ED329490A98FFF7B8FC4D
:100DC00009D326490B98FFF7A9FC04D324490B98B3
:100DD000FFF7AEFC04D22349234802F013FA03E0E4
:100DE0002249214802F00EFA3046FFF750FC044633
:100DF00022460B461E491C4802F004FA0898FFF7E9
:100E000046FC044622460B461A49174802F0FAF9F6
:100E10000798FFF73CFC044622460B461649124849
:100E200002F0F0F99DF8182014490F4802F0EAF991
:100E30009DF8142012A10C4802F0E4F9202120486A
:100E400000F0D4F8642003F0ABFA20211C4800F035
:100E5000CFF8642003F0A4FA12B070BD00008CC279
:100E600000008C422472000800440040C470000856
:100E7000E0710008987100085071000808710008BE
:100E8000636D643D32267569643D643331313333BB
:100E90003063373637393563386232313335663946
:100EA0003935653137656434363826746F70696357
:100EB0003D53504F32266D73673D2325640D0A0064
:100EC000000801402DE9F0410246002500260020DF
:100ED00000230024002791F803C00CF00F0591F8BF
:100EE00003C00CF0100CBCF1000F03D091F802C04D
:100EF0004CEA050591F800C0BCF1000F31D0146830
:100F000000202BE04FF0010C0CFA00F3B1F800C008
:100F10000CEA03069E4220D183004FF00F0C0CFA1E
:100F200003F7BC4305FA03FC4CEA040491F803C040
:100F3000BCF1280F06D14FF0010C0CFA00FCC2F8EE
:100F400014C00AE091F803C0BCF1480F05D14FF07E
:100F5000010C0CFA00FCC2F810C0401C0828D1D3C8
:100F60001460B1F800C0BCF1FF0F34DD54680020FC
:100F70002EE000F1080C4FF0010808FA0CF3B1F86C
:100F800000C00CEA03069E4221D183004FF00F0CF3
:100F90000CFA03F7BC4305FA03FC4CEA040491F88D
:100FA00003C0BCF1280F05D100F1080C08FA0CF8B9
:100FB000C2F8148091F803C0BCF1480F07D100F1CA
:100FC000080C4FF0010808FA0CF8C2F81080401C19
:100FD0000828CED35460BDE8F08102460020936813
:100FE0000B400BB1012000E00020704741617047C9
:100FF000016170470AB1016100E04161704700BFC3
:10100000FEE7000010B501F075F94FF4A06000F0A4
:10101000CDFF00F0CDFAFFF77BFD00F0DFFA03F023
:101020009DF901F005FD03F02BFB00F0F1FA00F053
:101030006FFE00F015FE4FF4E13002F035F84FF48A
:10104000E13002F089F808A308220A21012001F00A
:101050009EF901F099FB4FF47A7003F0A1F901F0C9
:1010600085F801F091FB10BD48617264776172658B
:1010700020496E6974204F4B0000000021B10288A6
:1010800042F48062028004E002884FF6FF331A4087
:101090000280704770B5024600240025002300201E
:1010A000958A138B1B0445EA030626F07F4404EA65
:1010B00001068E4201D1012000E0002070BD21B167
:1010C000028842F00102028004E002884FF6FE73BB
:1010D0001A400280704721B1028842F48072028077
:1010E00004E002884FF6FF631A400280704721B186
:1010F000028842F40072028004E002884FF6FF5337
:101100001A40028070470CB502460020002301936C
:10111000009300920B0F019321F07F41019B1BB1C3
:10112000009B1433009303E0090C009B18330093D9
:10113000009B1B680B400BB1012000E000200CBDA0
:101140002DE9F04385B004460D460026B14604273C
:10115000DFF8CC80A6884FF6C0700640684601F0E4
:10116000E5FBDDF808802F48B8FBF0F01FFA80F9A6
:1011700046EA0906A68020884FF6FE7108402080C6
:1011800000262949286888420CD828684000B8FB06
:10119000F0F087B2042F00DA04273E4309F1010082
:1011A000208427E0E8884BF6FF71884206D1286842
:1011B00000EB4000B8FBF0F087B209E0286800EBD4
:1011C000C00101EB0010B8FBF0F087B247F4804794
:1011D000C7F30B0008B947F0010747F40040064386
:1011E0004FF4967009FB00F04FF47A7190FBF1F028
:1011F000401C2084A683208840F00100208026889F
:101200004FF6F5300640A8886989084306432680D2
:10121000A88929890843208105B0BDE8F083000032
:1012200000127A0040420F00A08601000146088AA1
:10123000C0B2704712B141F0010102E04FF6FE73F7
:1012400019400182704701827047000010B50020EC
:101250000F4908600F48006820F00F000D49086032
:101260000846006840F00700086000200A49C1F8FD
:10127000A001022003F0BAF801200549086002200D
:1012800003F0B4F800200449C1F8A40110BD000027
:10129000A4812142040C01400080214208B50121B3
:1012A000082001F033FB4FF44070ADF8000010202F
:1012B0008DF8030003208DF8020069460448FFF70B
:1012C00001FE0120034908600349C1F8A00108BDDF
:1012D000000C0140A48121420080214210B5002071
:1012E0000F4908600F48006820F00F000D490860A2
:1012F0000846006840F00700086001200A49C1F86C
:10130000A001022003F072F80120054908600220C4
:1013100003F06CF800200449C1F8A40110BD0000DE
:10132000A4812142040C01400080214270B5054691
:1013300000241748006820F00F001549086008468F
:10134000006840F004000860002616E00020114903
:101350000860022003F04AF801200F49C1F8A401F7
:101360006006040E0B488438006808B1601CC4B2E3
:10137000012003F03BF8701CC6B2082EE6DB15B95D
:10138000FFF7ACFF01E0FFF761FF204670BD0000F2
:10139000040C0140A48121420080214270B5044622
:1013A0001548006820F00F001349086008460068DF
:1013B00040F007000860002010490860002517E091
:1013C000E0090E49091F08606006040E022003F0C0
:1013D0000DF801200A49C1F8A401022003F006F823
:1013E000002006490860022003F000F8681CC5B21E
:1013F000082DE5DB70BD0000040C0140A4812142F2
:101400000080214210B50F48006820F00F000D4900
:1014100008600846006840F00700086001200A499B
:1014200008600A49C1F8A401042002F0DFFF00208F
:1014300005490860042002F0D9FF00200349C1F8E3
:10144000A40110BD040C0140A08121420080214272
:1014500010B50F48006820F00F000D4908600846DD
:10146000006840F00700086000200A4908600A4947
:10147000C1F8A001042002F0B9FF0120054908606D
:101480000549C1F8A001042002F0B0FF10BD000022
:10149000040C0140A48121420080214210B50024A7
:1014A0001448006820F00F001249086008460068E0
:1014B00040F00400086001200F49086002F096FF28
:1014C00001200E49C1F8A40102F090FF07E0601C62
:1014D000C4B2FA2C03DDFFF7BBFF012010BD0648A4
:1014E000803800680028F2D10349091D086000BF58
:1014F000F4E70000040C0140A08121420080214259
:1015000010B5002440212848FFF767FD68B9142072
:1015100002F046FF00BF40212448FFF75EFD00288F
:10152000F9D0142002F03CFF012480211E48FFF76F
:1015300054FD68B9142002F033FF00BF80211A481F
:10154000FFF74BFD0028F9D0142002F029FF0224F8
:101550004FF400611448FFF740FD70B9142002F009
:101560001FFF00BF4FF400610F48FFF736FD002852
:10157000F8D0142002F014FF03244FF480510A48DD
:10158000FFF72BFD70B9142002F00AFF00BF4FF4E3
:1015900080510548FFF721FD0028F8D0142002F003
:1015A000FFFE0424204610BD00080140000C01404D
:1015B00008B50121042001F0A9F948208DF80300A5
:1015C0004FF4C650ADF8000003208DF802006946C4
:1015D0000148FFF777FC08BD0008014008B501216C
:1015E000042001F093F928208DF803002220ADF8A3
:1015F000000003208DF8020069460448FFF762FCF2
:1016000022210248FFF7F4FC08BD00000008014059
:101610000EB53B483B49086000203B4908604FF449
:10162000FA703A4908600020394908604DE000BF6F
:10163000384800680128FBD03749072002F0DFFF57
:10164000354800788007800B3349497840EA01200B
:1016500031498978084331492D4A126841F82200FE
:101660002D48C0788007800B2B49097940EA01207A
:101670002949497908432A49254A126841F8220034
:1016800026482349096850F821001E490968884204
:1016900006D222481E49096850F8210019490860FD
:1016A0001E481B49096850F82100174909688842FB
:1016B00006D91A481649096850F8210012490860ED
:1016C00013480068401C12490860114800680F491F
:1016D00009688842ABDB11480D49096850F82100C0
:1016E0001049086010481149114A124BCDE90021F8
:1016F00002900A4A05480168094803F02FF80EBD18
:10170000FFFF030050000020540000203C00002098
:101710005C0000201481214269000020D8230020B1
:10172000081C0020580000204C0000204800002029
:101730004400002040000020FEB504460D46002075
:101740009D4908609D489E49086000209D490860A9
:101750006420994908603AE09B489749096850F825
:101760002110954800686438974A42F8201097483D
:101770009149096850F821108F4800686438934AED
:1017800042F8201090488C49096850F821008C4993
:101790000968884206D28C488749096850F82100B8
:1017A0008749086088488449096850F821008549BC
:1017B0000968884206D984487F49096850F82100A1
:1017C000804908607C480068401C7B4908607A4872
:1017D0000068B0F5FA7FBFDB4FF4C8707649086047
:1017E000BAE075480068401E774951F820007849F2
:1017F00008607849072002F002FF764800788007E9
:10180000800B7449497840EA01207249897808437D
:101810006D49694A126841F822006E48C078800715
:10182000800B6C49097940EA01206A4949790843EB
:101830006649614A126841F8220063485E490968B6
:1018400050F8210062490968884231D95E495A4AF4
:10185000126851F822105E4A1268881AFEF7DBFE01
:101860005D49086057490968554A1268881AFEF7A9
:10187000D2FE0646314658480068FEF7FDFC564940
:101880000860564954480068FEF7C4FC5249086095
:1018900008460068FEF7E2FE51490968081A5049F7
:1018A000086008460068002833DA0020086030E04D
:1018B0004549414A126851F82210454A1268501AA7
:1018C000FEF7A9FE444908603E4909683C4A12688F
:1018D000881AFEF7A0FE064631463F480068FEF72C
:1018E000CBFC3D4908603D493B480068FEF792FC4F
:1018F0003949086008460068FEF7B0FE38490968B3
:1019000008443749086008460068FF2801DDFF20C9
:10191000086034480078012813D1334800687828DB
:101920000FDA3248007801280BD131480068652869
:1019300007DA2D4800782F4908702D4800782E4985
:1019400008702C48007820702B48007828701A48BE
:101950000068401C1849086017480068B0F5FA7F15
:10196000FFF63FAF1F482049204A214BCDE9002117
:101970000290154A21480168144802F0EFFE1D4804
:10198000007838B91C48007820B91DA1214801F021
:101990000FFD07E018480378164802781EA11D487D
:1019A00001F006FD1421084802F046FD0021074819
:1019B00002F042FDFEBD00005C000020FFFF0300BE
:1019C0005000002054000020D8230020081C0020D4
:1019D00058000020690000206400002000007F43C0
:1019E000600000204C00002048000020440000203F
:1019F000400000206F000020700000203C0000200C
:101A000048523A2D2D2D2053704F323A2D2D2D2036
:101A100000000000A82B002048523A2533642053D0
:101A2000704F323A25336420000000002DE9FF4F4B
:101A300097B00C4615461E46DDE92789269FDFF83C
:101A4000FCA17F4816902846FEF7EAFDCDE90C017F
:101A50001798FEF7E5FDCDE90A01DDE90C2302F058
:101A6000BDFB0022774BCDE90E01FEF7EAFC764A7A
:101A7000764BCDE91001FEF756FDCDE91201FEF7D8
:101A800031FE15902846FEF7CBFDCDE90C0120462E
:101A9000FEF7C6FDCDE90A01DDE90C2302F09EFB4D
:101AA0000022684BCDE90E01FEF7CBFC664A674B7E
:101AB000CDE91001FEF737FDCDE91201FEF712FE68
:101AC000149051464FF07E50FEF79EFB0D901599F5
:101AD000FEF7A0FB8346FEF7DAFDCDE9100116986C
:101AE000FEF7D5FDCDE904013046FEF799FD002251
:101AF000574BCDE90001FEF716FDCDE90201DDE906
:101B00000423FEF79EFCCDE9080152480068FEF769
:101B1000BEFDCDE90601DDE90823FEF7EBFBCDE9CB
:101B20000C015046FEF7B3FDCDE90A01DDE90C23B7
:101B3000FEF787FCCDE90E01DDE91023FEF7DAFBA5
:101B4000CDE91201FEF7CEFD386051464FF07E50D0
:101B5000FEF75AFB0D901499FEF75CFB8346FEF7E7
:101B600096FDCDE910011698FEF791FDCDE904012F
:101B70002498FEF755FD0022354BCDE90001FEF714
:101B8000D2FCCDE90201DDE90423FEF75AFCCDE9E0
:101B9000080131480068FEF77AFDCDE90601DDE96C
:101BA0000823FEF7A7FBCDE90C015046FEF76FFDB9
:101BB000CDE90A01DDE90C23FEF743FCCDE90E0176
:101BC000DDE91023FEF796FBCDE91201FEF78AFD51
:101BD000C8F800001698FEF75AFDCDE90C012598CB
:101BE000FEF71EFD00221A4BCDE90801FEF79BFC13
:101BF000CDE90A01DDE90C23FEF723FCCDE9100154
:101C000016480068FEF743FDCDE90E01DDE910231B
:101C1000FEF770FBCDE91201FEF764FDC9F8000084
:101C20000C49386808600C49D8F8000008600B4976
:101C3000D9F8000008601BB0BDE8F08F48E17A3F9A
:101C40000AD7233C00806640182D4454FB210940EC
:101C50000060604084000020880000208C0000208C
:101C600010B500F055F800216B2000F047F810BDCA
:101C70007CB506460C46154606236A463B21D02015
:101C800000F080F89DF801009DF8001040EA012066
:101C900000B230809DF803009DF8021040EA012058
:101CA00000B220809DF805009DF8041040EA012054
:101CB00000B228807CBD7CB506460C46154606233E
:101CC0006A464321D02000F05DF89DF801009DF8A0
:101CD000001040EA012000B230809DF803009DF81A
:101CE000021040EA012000B220809DF805009DF816
:101CF000041040EA012000B228807CBD13B50446E0
:101D0000012301AA2146D02000F0D4F81CBD000018
:101D100000B585B00121480500F0E8FD012108204B
:101D200000F0F4FDC020ADF800001C208DF8030089
:101D300003208DF8020069460F48FFF7C3F8002022
:101D4000ADF808004BF6FF70ADF80A000020ADF8C2
:101D50000C004FF48060ADF80E000001ADF81000EB
:101D60000648019001A90648FFF7EAF90121044855
:101D7000FFF7A5F905B000BD000C0140801A060070
:101D8000005400402DE9F04107460E4615461C461A
:101D900000F084F800F068F80021384600F032F8CE
:101DA000304600F04FF800F05FF80121384600F0AF
:101DB00029F80DE0012C05D100210948FFF75EF953
:101DC00000F064F800F00EF805F8010B601EC4B2D4
:101DD000002CEFDC01210248FFF750F9BDE8F0814B
:101DE0000054004010B500BF04490548FFF752F900
:101DF0000028F9D00248FFF719FA10BD400003008F
:101E00000054004070B505460C46224629460A4853
:101E1000FFF710FA3CB900BF08490748FFF73AF945
:101E20000028F9D006E000BF05490348FFF732F962
:101E30000028F9D070BD0000005400408200070067
:101E40000200030010B5044621460548FFF7FBF9E0
:101E500000BF04490248FFF71DF90028F9D010BD62
:101E6000005400408400070010B501210548FFF729
:101E700032F900BF04490348FFF70CF90028F9D0F4
:101E800010BD0000005400400100030010B5012106
:101E90000148FFF72CF910BD0054004010B500BFF9
:101EA0004FF400310248FFF72EF90028F8D110BD99
:101EB000005400402DE9F04106460F4614461D46E9
:101EC000FFF7ECFFFFF7D0FF00213046FFF79AFF46
:101ED00005E014F8010BFFF7B5FF681EC5B2002D31
:101EE000F7DCFFF7D3FFBDE8F08100BFFEE700009D
:101EF00010B58CB000F084FD00F5E1400B900BA80C
:101F0000FEF798FC04462C2221466846FEF70AF9A3
:101F1000059800F26C70074908800498401C4880BE
:101F2000039888800298C8800198088100984881A9
:101F30000CB010BD2C0000207047000070B50021CF
:101F400000230F22C47804B3154C246804F4E06421
:101F5000C4F5E064210AC1F10403CA40447804FADC
:101F600003F184781440214309010E4C0678A155F1
:101F7000047804F01F050124AC4005786D11AD0014
:101F800005F1E025C5F8004109E0047804F01F05DB
:101F90000124AC40044D0678761145F8264070BD0A
:101FA0000CED00E000E400E080E100E002490143C4
:101FB000024A1160704700000000FA050CED00E0D5
:101FC0000020014908707047380000202DE9F05FBB
:101FD00004460D4616461F46DDE90CABDDE90A89CD
:101FE0003B4632462946204600F0EAF9B3E0444534
:101FF00005DB4D4503DB564501DB5F4551DA3B46CA
:1020000032462946204600F0DBF9444506DAA8EBC3
:10201000040000EBD07104EB6101CCB24D4506DA4F
:10202000A9EB050000EBD07105EB6101CDB256457F
:1020300006DAAAEB060000EBD07106EB6101CEB226
:102040005F4506DAABEB070000EBD07107EB6101EF
:10205000CFB2A8F10100A04200D14446A9F101008D
:10206000A84200D14D46AAF10100B04200D1564627
:10207000ABF10100B84200D15F463B4632462946EB
:10208000204600F09DF900F07FFB444509D14D4505
:1020900007D1564505D15F4503D10120324908706B
:1020A0005EE0444505DC4D4503DC564501DC5F45FB
:1020B00051DD3B4632462946204600F081F9444531
:1020C00006DDA4EB080000EBD071A4EB6101CCB2FB
:1020D0004D4506DDA5EB090000EBD071A5EB6101D4
:1020E000CDB2564506DDA6EB0A0000EBD071A6EB9B
:1020F0006101CEB25F4506DDA7EB0B0000EBD071AE
:10210000A7EB6101CFB208F10100844200D144463F
:1021100009F10100854200D14D460AF101008642D5
:1021200000D156460BF10100874200D15F463B4685
:1021300032462946204600F043F900F025FB44458D
:1021400009D14D4507D1564505D15F4503D1012041
:102150000549087004E00448007800283FF447AFC0
:1021600000BFBDE8F09F00003800002000200CE018
:10217000002106E00022064B03EBC0135A544A1C10
:10218000D1B28029F6DB421CD0B20828F0DB7047C0
:10219000A80000202DE9F04304460D4616461F46D0
:1021A000284638E0224631E0002A2DDB7F2A2BDC4E
:1021B000002829DB3F2827DC4FEAE07C00EB5C7C31
:1021C0004FEAEC0CDFF8588008EBCC1C1CF802C07E
:1021D00003464FEAE07800EB58784FEAE808A0EBB6
:1021E000C8094FF0010808FA09F82CEA080C014662
:1021F0004FEAE07800EB58784FEAE808DFF82090E3
:1022000009EBC81808F802C0511C0AB2A119914282
:10221000CADC411C08B2E9198142C3DCBDE8F08385
:10222000A800002038B5002406E0002500E06D1C61
:10223000B5F57A7FFBD3641CB4F57A7FF5D3012121
:10224000082000F063FB14208DF8030003208DF8B4
:1022500002004FF48060ADF8000069460848FEF7C0
:1022600031FE4FF40060ADF8000069460448FEF707
:1022700029FE012000F09CFA012000F0A5FA38BDEB
:10228000000C014070B50546002411E08021214179
:10229000294009B1012100E00021084600F094FA2C
:1022A000012000F085FA002000F082FA601CC4B220
:1022B000082CEBDB012000F07BFA002000F078FA1C
:1022C00070BD10B5012000F07FFA012000F070FA17
:1022D000002000F079FA002000F06AFA10BD10B575
:1022E000002000F071FA012000F062FA012000F0F5
:1022F0006BFA10BD10B5FFF795FFAE2000F070FA35
:10230000D52000F06DFA802000F06AFAA82000F0D5
:1023100067FA3F2000F064FAD32000F061FA002051
:1023200000F05EFA402000F05BFAA12000F058FABD
:10233000C82000F055FADA2000F052FA122000F01E
:102340004FFA812000F04CFACF2000F049FAD92052
:1023500000F046FAF12000F043FADB2000F040FAEA
:10236000302000F03DFAA42000F03AFAA62000F058
:1023700037FA8D2000F034FA142000F031FAAF2043
:1023800000F02EFAFFF7F2FE00F0FEF910BD0FB4D8
:1023900070B5C2B005460E4614464AA8019002A880
:1023A000019A499901F02EF800200190234602AAD3
:1023B0003146284600F006F942B070BC5DF814FBC7
:1023C0002DE9F04304460D4616461F46284638E0E0
:1023D000224631E0002A2DDB7F2A2BDC002829DB76
:1023E0003F2827DC4FEAE07C00EB5C7C4FEAEC0CFA
:1023F000DFF8588008EBCC1C1CF802C003464FEAFB
:10240000E07800EB58784FEAE808A0EBC8094FF0F5
:10241000010808FA09F88CEA080C01464FEAE0784E
:1024200000EB58784FEAE808DFF8209009EBC8186D
:1024300008F802C0511C0AB2A1199142CADC411C21
:1024400008B2E9198142C3DCBDE8F083A80000208E
:1024500070B505460C4645F0B00000F0C1F91021FA
:1024600041EA141000F0BCF904F00F0000F0B8F9D4
:1024700070BD0000F8B506460F4614461D46082DEF
:102480000CD1A4F120000E4901EB0010102308220A
:1024900039460090304600F017F80FE0062D0DD1B8
:1024A000A4F1200000EB4000064901EB40000823A6
:1024B000062239460090304600F006F8F8BD0000CC
:1024C000805B0008706100082DE9FF4F80460E46D2
:1024D0009146DDF834B0002500244A463146404696
:1024E000039BFFF757FE00BF5EE0002558E008EBB6
:1024F0000500002852DB08EB05007F284EDC304643
:10250000F11706EB5171C9100FB2F11706EB5171BB
:10251000C910A6EBC10A002E05DA781E07B20AF12F
:1025200008000FFA80FA3819002817DB3819072835
:1025300014DC3819224901EBC01008EB0501405C9E
:1025400004FB09511BF8011001FA0AF1084339197B
:102550001B4A02EBC11108EB050288543819401CD4
:1025600000281BDB3819401C072817DC3819401CD1
:10257000134901EBC01008EB0501405C04FB095155
:102580001BF80110CAF10802114108433919491C0E
:102590000B4A02EBC11108EB05028854681CC5B256
:1025A0004D45A4DB601CC4B20399481EC11700EB63
:1025B0005171012202EBE101A14296DCBDE8FF8FDF
:1025C000A80000202DE9FE4F07468A46144698468B
:1025D0000025AB460026CBE0605D00F0800058B9D6
:1025E0004FF0010B2846691C8DB2205C8DF8040069
:1025F00000208DF805006BE0605D00F0E000C02871
:1026000014D14FF0020B2846691C8DB2205C8DF866
:102610000400605D00B9AFE02846691C8DB2205C03
:102620008DF8050000208DF8060051E0605D00F097
:10263000F000E0281DD14FF0030B2846691C8DB235
:10264000205C8DF80400605D00B995E02846691CA7
:102650008DB2205C8DF80500605D00B98CE02846E5
:10266000691C8DB2205C8DF8060000208DF80700F3
:102670002EE0605D00F0F800F02826D14FF0040B4A
:102680002846691C8DB2205C8DF80400605D00B99D
:1026900072E02846691C8DB2205C8DF80500605DF3
:1026A00000B969E02846691C8DB2205C8DF80600EF
:1026B000605D00B960E02846691C8DB2205C8DF831
:1026C000070000208DF8080002E0681C85B24FE08A
:1026D000BBF1010F0BD19DF80420B91908B2434694
:1026E0005146FFF7C7FE06EB080086B23FE04FF009
:1026F00000090EE009EB890101EB4911204A881815
:1027000001A9FDF721FD00B90EE009F101001FFA52
:1027100080F909EB890101EB4911194A881819A1BF
:10272000FDF712FD0028E5D100BFB8F1080F12D166
:1027300009EB890000EB491011490844401DB91903
:10274000009008B210231A465146FFF7BDFE06F16D
:10275000100086B20BE0B8F1060F08D1B91908B223
:1027600006233F225146FFF785FEB01D86B200BF0B
:10277000605D00287FF430AF00BFBDE8FE8F000031
:10278000AA6300080000000010B500240BE000213F
:102790002046FFF75DFE054901EBC410802100F0E3
:1027A0002FF8601CC4B2082CF1DB10BDA80000207B
:1027B00010B5044622464FF480610248FEF71AFC29
:1027C00010BD0000000C014010B5044622464FF435
:1027D00000610248FEF70EFC10BD0000000C014035
:1027E00010B50446FFF76DFD7820FFF74BFD002084
:1027F000FFF748FD2046FFF745FDFFF770FD10BDD0
:1028000070B505460E46FFF75CFD7820FFF73AFDF0
:102810004020FFF737FD002404E0285DFFF732FD7C
:10282000601CC4B2B442F8DBFFF759FD70BDFCB5C3
:1028300002462F2300BF00208DF805008DF804000C
:102840008DF803008DF8020001208DF801000720AB
:102850008DF800002F2300250521002409E0581ED3
:10286000C3B2072C02DA601CC4B202E00024481E86
:10287000C1B2505C80272741384008B90029EEDCFE
:10288000A3F10800C5B21EE0052118E0481E1DF89E
:10289000000000F0800018B1002901DD012600E0F1
:1028A00000261DF801004006000E0DF801001DF87D
:1028B00001003044C0B20DF80100481EC1B2FF292A
:1028C000E4DB681EC5B2002DDED1002106E0505CBD
:1028D0001DF8017078405054481CC1B20529F6DD3E
:1028E000082BA8DC1078FCBD7047000029B1064A0F
:1028F000D2690243044BDA6104E0034AD26982439D
:10290000014BDA61704700000010024029B1064A0D
:1029100092690243044B9A6104E0034A926982433C
:10292000014B9A61704700000010024030B5002151
:102930000022002400232D4D6D6805F00C0121B10B
:10294000042905D0082923D105E0294D056022E09E
:10295000274D05601FE0254D6D6805F47012234D6D
:102960006D6805F48034022505EB92421CB9214DB7
:10297000554305600BE01D4D6D6805F400351DB134
:102980001C4D5543056002E0194D5543056002E0BA
:10299000174D056000BF00BF144D6D6805F0F001D4
:1029A0000909154D6B5C0568DD4045600F4D6D688C
:1029B00005F4E061090A104D6B5C4568DD408560F7
:1029C0000A4D6D6805F46051C90A0B4D6B5C456892
:1029D000DD40C560054D6D6805F44041890B074D2C
:1029E0006B5CC568B5FBF3F5056130BD00100240B6
:1029F00000127A0000093D0014000020240000208D
:102A0000002103480188001F008841EA0040704708
:102A10001C280040002107E0002201E0531C9AB26C
:102A20008242FBDB4B1C99B20429F5DB70470000A6
:102A300008B501210820FFF769FF4FF44040ADF8C9
:102A4000000014208DF8030003208DF80200694671
:102A50000648FEF737FA012291030448FEF7CAFA46
:102A60000122D1030148FEF7C5FA08BD000C014060
:102A70002DE9FC5F04460D464FF00009CA46CB46DF
:102A80006006040E00BF00BF00F010F9ABF10100BA
:102A900000F0FF0BBBF1000F00D136E000F0E0F8D2
:102AA000204600F0C3F800B1EEE7284600F0BEF87B
:102AB00000B1E9E700F0D4F8611CC8B200F0B6F844
:102AC00000B1E1E7002000F071F88146002000F03D
:102AD0006DF88246012000F069F8804600F0E6F8C3
:102AE0008DF805408DF80450601CC0B28DF80300CD
:102AF0008DF802908DF801A000208DF80000684646
:102B0000FFF795FE06464645BDD100BF49EA0A27B4
:102B10003846BDE8FC9F00002DE9F05F072100204A
:102B2000FFF7A6FF8346FDF78CFD8046084A094B58
:102B3000FDF787FC06464FF06632074BFDF77BFC3E
:102B40000446FDF7CFFD82465046BDE8F09F0000E9
:102B50007B14AE47E17A943F6612714010B50122B2
:102B6000D1031148FEF746FA0220FFF753FF012276
:102B700091030D48FEF73EFA0520FFF74BFF0A4888
:102B80000830006800F4004008B1012400E000248F
:102B900000224FF480410448FEF72CFA0320FFF78F
:102BA00039FF204610BD0000000C014070B50646FC
:102BB00008250DE0FFF7D2FF20B16006040E44F0B7
:102BC000010403E06006040E04F0FE04681EC5B2B2
:102BD000002DEFD1304600F003F8204670BD000014
:102BE00010B5044634B900224FF400410E48FEF7F8
:102BF00001FA04E00122D1030B48FEF7FBF90220A1
:102C0000FFF708FF012291030748FEF7F3F90620BA
:102C1000FFF700FF00224FF480410348FEF7EAF976
:102C20000320FFF7F7FE10BD000C01402DE9F04135
:102C3000044608250CE004F0800008B1012600E0FD
:102C400000263046FFF7CCFF6006040E681EC5B2B2
:102C5000002DF0D1FFF782FF07463846BDE8F0812E
:102C600010B50122D1031048FEF7C4F90520FFF783
:102C7000D1FE012291030C48FEF7BCF90520FFF7B5
:102C8000C9FE00224FF400410748FEF7B3F90520C2
:102C9000FFF7C0FE00224FF480410348FEF7AAF977
:102CA0000520FFF7B7FE10BD000C014010B5002253
:102CB0004FF480410E48FEF79DF90520FFF7AAFE6C
:102CC00000224FF400410A48FEF794F90520FFF76F
:102CD000A1FE012291030648FEF78CF90520FFF7BB
:102CE00099FE0122D1030248FEF784F910BD0000CD
:102CF000000C0140704710B500F002F810BD000054
:102D00000CB50020019000903348006840F48030FA
:102D10003149086000BF3048006800F4003000907E
:102D20000198401C0190009818B90198B0F5A06F67
:102D3000F1D12948006800F4003010B10120009062
:102D400001E0002000900098012843D1234800684A
:102D500040F01000214908600846006820F0030098
:102D600008600846006840F0020008601A484068A1
:102D7000194948600846406848600846406840F481
:102D8000806048600846406820F47C10486008462F
:102D9000406840F4E81048600846006840F08070E1
:102DA000086000BF0C48006800F000700028F9D0EF
:102DB0000948406820F00300074948600846406819
:102DC00040F00200486000BF0348406800F00C007B
:102DD0000828F9D10CBD000000100240002002407C
:102DE000042808D14FF0E021096941F004014FF0B7
:102DF000E022116107E04FF0E021096921F00401B0
:102E00004FF0E022116170477047000010B5134881
:102E1000006840F001001149086008464068104908
:102E200008400E494860084600680E4908400B49B2
:102E300008600846006820F4802008600846406862
:102E400020F4FE0048604FF41F008860FFF753FF36
:102E50004FF000600449086010BD000000100240FF
:102E60000000FFF8FFFFF6FE08ED00E010B5FFF7E9
:102E700053FE0446204610BD10B540F225510448CB
:102E800000F050F818B12021014800F029F810BDD9
:102E90000038014010B540F225510E4800F042F8CC
:102EA000B8B10D480088B0F5007F02D300200A4970
:102EB00008800848001D0088C1B2074802880088C1
:102EC000401C054B1880054881542021014800F022
:102ED00007F810BD00440040A00000200C2C00208A
:102EE00001F40072B2F5007F00D100BFCA43028036
:102EF000704721B1828942F40052828104E08289C4
:102F00004DF6FF731A408281704702460020B1F5EA
:102F1000007F00D100BF13880B400BB1012000E0FF
:102F20000020704770B502460024002300250020D1
:102F300040F66A16B14200D100BFC1F3421501F05C
:102F40001F03012606FA03F3012D02D196893340AF
:102F500006E0022D02D1168A334001E0968A334002
:102F60000C12012606FA04F41688344013B10CB191
:102F7000012000E0002070BDF0B5034600240026CB
:102F80000025002040F66A17B94200D100BF18465C
:102F9000C1F3421401F01F06012707FA06F5012CC0
:102FA00001D10C3004E0022C01D1103000E01430CB
:102FB0001AB107682F43076002E00768AF43076054
:102FC000F0BD00002DE9F04786B005460E4600240E
:102FD000A24600BFA1460027B08900B100BF2F461E
:102FE0002C8A4CF6FF700440F08804432C82AC8994
:102FF0004EF6F3100440B0883189084371890843C4
:103000000443AC81AC8A4FF6FF400440B0890443CE
:10301000AC8201A8FFF78AFC1F48874202D1DDF885
:1030200010A001E0DDF80CA0A88900F4004040B138
:103030000AEBCA0000EB0A1031684900B0FBF1F856
:1030400007E00AEBCA0000EB0A1031688900B0FB08
:10305000F1F86420B8FBF0F004012009642101FBC1
:103060001089A88900F4004040B1322000EBC9006B
:10307000B0FBF1F000F00700044308E0322000EB61
:1030800009106421B0FBF1F000F00F0004432C8123
:1030900006B0BDE8F087000000380140C1F3080227
:1030A0008280704700BFFEE710B586B0044601215C
:1030B0000420FFF72BFC01218803FFF727FC1820D1
:1030C0008DF817004FF40070ADF8140003208DF850
:1030D000160005A91E48FDF7F5FE04208DF817001F
:1030E0000002ADF8140003208DF8160005A9184859
:1030F000FDF7E8FE01940020ADF810000C20ADF8BB
:103100000E000020ADF80C00ADF80A00ADF8080084
:1031100001A91048FFF756FF01210E48FFF7E9FE0D
:10312000012240F225510B48FFF726FF25208DF89C
:10313000000001208DF8030000208DF8010002201E
:103140008DF802006846FEF7F9FE06B010BD0000DB
:10315000000801400038014010B586B00446012146
:103160000420FFF7D3FB01214804FFF7BFFB182021
:103170008DF817000420ADF8140003208DF8160018
:1031800005A91E48FDF79EFE04208DF817000820B3
:10319000ADF8140003208DF8160005A91748FDF7B7
:1031A00091FE01940020ADF810000C20ADF80E0047
:1031B0000020ADF80C00ADF80A00ADF8080001A938
:1031C0000F48FFF7FFFE01210D48FFF792FE012295
:1031D00040F225510A48FFF7CFFE26208DF8000067
:1031E00001208DF803008DF8010000208DF8020009
:1031F0006846FEF7A3FE06B010BD000000080140BF
:10320000004400400FB430B5CBB0054601AC50A827
:1032100000904FF4947101A8009B4F9A00F0DCF8E5
:10322000002000900BE014F8011B2846FFF736FF42
:1032300000BF40212846FFF768FE0028F9D020781B
:103240000028F0D14BB030BC5DF814FB2DE9F04103
:1032500007460C46154600260DE014F8011B3846BB
:10326000FFF71CFF00BF40213846FFF74EFE002845
:10327000F9D0701C86B2AE42EFDBBDE8F0810000F1
:103280002DE9F041002401211848FDF7AFFE0A2086
:1032900001F0ACF8002517E001211448FDF7A8FE65
:1032A0000A2001F0A3F8640002211048FDF795FE02
:1032B00008B144F0010401210C48FDF797FE0A20F3
:1032C00001F094F8681CC5B2182DE5DB2046FDF727
:1032D000A2F980460649FCF7CFFF07460549FCF7EF
:1032E00099FF06463046BDE8F0810000000C014021
:1032F000FFFF7F4B000020422DE9F04705460E46B8
:103300001446FFF7BDFF80461E48007828B91E48C6
:10331000C0F8008001201B4908701C491C48006847
:10332000FCF720FF1A4908601A4919480068FDF7A0
:10333000FFF906D2174916480068FCF765FF1449E3
:1033400008601348006802F057FB81461249FCF7F9
:1033500061FF074611493846FCF75CFF814610497A
:10336000FCF700FF28600F493846FCF753FF814601
:103370000D49FCF7F7FE30600CB10C482060BDE849
:10338000F08700007C00002078000020CDCCCC3DF0
:1033900080000020D00FC940000020419A99193FB9
:1033A0000000F042CDCCCC3E0000A0420000904294
:1033B0000FB4084B10B504A902AA039800F056FAFE
:1033C000044602A9002000F0F3FD204610BC5DF881
:1033D00014FB0000B13F00087CB5044600201D46E8
:1033E000164600290BD0491ECDE90041044B6A4620
:1033F0002946304600F03AFA009A002111707CBD4F
:103400009B3F000837B514460846064B6A462146DE
:1034100000F02CFA04466946002000F0C9FD204661
:103420003EBD0000B13F0008490050EAC12018BF6E
:1034300004204A0D18BF40F0010040F2FF72B2EBC9
:10344000515F08BF40F00200012808BF0520704707
:103450004100080218BF04200A0E18BF40F0010006
:103460004FF07F4232EA010108BF40F0020001281C
:1034700008BF052070472DE9F0414F1E00EBC70142
:103480000446D1E9000115461E4637F006020DD06C
:103490002A463346FCF7D5FF7F1E04EBC703D3E96A
:1034A0000023FCF727FF37F00602F1D1022F25D0C9
:1034B000042F13D0062F18BFBDE8F0812A463346EB
:1034C000FCF7BFFFD4E90A23FCF714FF2A46334672
:1034D000FCF7B7FFD4E90823FCF70CFF2A46334674
:1034E000FCF7AFFFD4E90623FCF704FF2A46334676
:1034F000FCF7A7FFD4E90423FCF7FCFE2A46334679
:10350000FCF79FFFD4E90223FCF7F4FE2A4633467A
:10351000FCF797FFD4E90023BDE8F041FCF7EABED1
:103520000122FDF7BBBAFCF7E5BE0000024A00200D
:103530001107FDF7B3BA000001FDFFFF0121FDF700
:10354000A1BA00210846FCF797BE6FF05E0108079C
:10355000FDF798BA2DE9F04D0D4614464FF07F4126
:10356000B1EB440F9EBF4FF0FF312960BDE8F08DF5
:103570004FF0004040EA0421C4F3C750783810F0FF
:103580001F024A4B4FEA601CC2F120067B44C4F381
:10359000C750A0F178004FEA601003EB800053F8A9
:1035A0002C3008BFD0E901C612D0D0F804C0934037
:1035B0002CFA06F73B4387680CFA02FC27FA06F858
:1035C000C06807FA02F2F0404CEA080C42EA000632
:1035D000A3FB0132ACFB01C0A6FB016101EB0C06B1
:1035E0008E4234BF4FF0010C4FF0000CC118614403
:1035F000BCF1000F02D0814202D903E0814201D226
:10360000012000E00020104400F120024FEA92184F
:103610008006CA0C40EA42304F03C5F80080FCF730
:10362000F1FF82463846FCF7F6FF6FF01201FDF716
:1036300029FA07463046FCF7EEFF6FF02501FDF74B
:1036400021FA834639465046FCF78CFD5946FCF773
:1036500089FD00F500666FF30B0651463046FCF716
:10366000D3FD3946FCF7D0FD5946FCF7D0FD104993
:10367000FCF7D0FD07460F493046FCF7CBFD394635
:10368000FCF770FD07460C493046FCF7C3FD394690
:10369000FCF768FD14F0004F08BFBDE8F08DC8F1DD
:1036A000805180F000402960BDE8F08D083B0000AB
:1036B000DB0FC92F22AAFD290000C92F02E008C88C
:1036C000121F08C1002AFAD170477047002001E09C
:1036D00001C1121F002AFBD1704700000149086098
:1036E00070470000A40000202DE9FF5F82B0002198
:1036F000DDE90430020DDDF840B0034318D044F694
:103700001050A2F2FF3242431514119801281FD025
:10371000A5EB0B00401C5FEA000A4FF000064E4F7D
:10372000DFF83891B046504615D5CAF1000413E0D1
:10373000119801244AA3012801D16FEA0B010298D4
:10374000119AC0E90031C0E9024206B0BDE8F09F1D
:10375000CBF10000DFE704460021404A491842EB64
:103760000450CDE9001012E0E00707D032463B4696
:1037700040464946FCF765FE8046894632463B4650
:1037800010461946FCF75DFE06460F466410002CF5
:10379000EAD1DDE90401DDE90023BAF1000F06DA20
:1037A000FCF74FFE42464B46FCF74BFE05E0FCF7AC
:1037B000BAFE42464B46FCF7B6FE04460E460022D1
:1037C000284BFCF777FF03D84FF0FF30014607E0A6
:1037D0000022254B20463146FCF78CFDFDF728F9E9
:1037E000102409E0002C0ADB0A220023FCF7C0FFAA
:1037F000039B30321A55641E50EA0102F2D1641C58
:10380000039AC4F111031444119A012A03D001222E
:1038100008430DD10AE0084304D000204FF0110BFB
:10382000119072E7A3EB0B056D1E0DE05B4504DD07
:103830004FF0000205F1010504E003DA4FF0000249
:10384000A5F10105002AECD002981199C0E90231D6
:10385000C0E9004579E70000000014400000F03F97
:10386000300000000000F0430000E03F2DE9FF4F72
:1038700095B09B468946064600250FE2252877D15C
:1038800000242746F84A0121059400E0044316F875
:10389000013F203B01FA03F01042F7D130782A288B
:1038A00011D06FF02F033078A0F13002092A16D81A
:1038B000059A44F0020402EB820203EB4202104438
:1038C000761C0590EFE759F8042B0592002A03DADD
:1038D000504244F40054059044F00204761C3078C1
:1038E0002E2816D116F8010F44F004042A280DD012
:1038F0006FF02F023078A0F13003092B09D807EBC5
:10390000870302EB4303C718761CF3E759F8047BDF
:10391000761C30786C280FD006DC4C2817D068282D
:103920000DD06A2814D104E0742810D07A280FD161
:103930000DE044F400140AE044F4801401E044F47F
:1039400040147278824202D104F58014761C761CF1
:10395000307866280BD013DC582877D009DC002893
:1039600075D04528F6D04628F4D047281AD19DE1D5
:1039700018E0632835D0642879D0652812D195E104
:10398000702873D008DC6728F1D069286FD06E28C2
:103990000DD06F2806D1B5E073282CD0752875D0CE
:1039A000782874D05A46179990476D1C75E1C4F376
:1039B0000250022809D003280DD0D9F8001004289D
:1039C0000DD00D6009F1040967E1D9F80010EA177C
:1039D000C1E90052F6E7D9F800100D80F2E70D704A
:1039E000F0E719F8041B8DF8001000208DF8010095
:1039F000EA46012003E059F804AB4FF0FF306107BD
:103A00004FF0000102D40DE008F101018846B942EF
:103A10000FDA8045F8DB1AF808100029F4D108E025
:103A200008F1010188468142FADB1AF808100029E2
:103A3000F6D105985B46A0EB080721463846179A51
:103A400000F094FA284400EB080507E04DE029E176
:103A50000DE01AF8010B5A4617999047B8F1010882
:103A6000F7D25B4621463846179A13E142E00A2214
:103A70000092C4F302524FF0000A022A08D059F80B
:103A800004CB032A4FEAEC710AD00DE029E02AE0CA
:103A900009F1070121F00702F2E802C1914609E0AD
:103AA0000FFA8CFC4FEAEC71042A03D14FFA8CFC1C
:103AB0004FEAEC71002907DA0A460021DCF1000C1C
:103AC00061EB02012D2202E0220504D52B228DF8A4
:103AD0000420012203E0E20701D02022F7E790460C
:103AE00059E00A2102E010220DE010214FF0000AF7
:103AF00000910BE010224FF0000A44F00404082764
:103B0000009203E008224FF0000A0092C4F3025230
:103B1000022A05D059F804CB0021032A08D009E075
:103B200009F1070121F00702F2E802C1914605E020
:103B30001FFA8CFC042A01D10CF0FF0C4FF0000896
:103B4000220728D5702806D0009B83F0100353EA83
:103B50000A0305D00EE040228DF80420012208E07F
:103B60005CEA010206D030228DF804208DF80500B1
:103B700002229046009B83F0080353EA0A030AD10D
:103B80005CEA010201D1620705D530228DF80420DC
:103B90004FF001087F1E582804D034A003900EA8CF
:103BA00002900DE036A0F9E753466046009AFCF714
:103BB000DFFD84460398825C0298401E02900270EA
:103BC0005CEA0100F0D1029806A9081A00F1200A67
:103BD000600702D524F4803400E00127574502DD58
:103BE000A7EB0A0000E0002000EB0A010090059816
:103BF0004144401A0590E00306D45B462146179ADB
:103C0000059800F0B3F90544002706E001A85A46DC
:103C1000C05D179990476D1C7F1C4745F6DBE0039C
:103C20000CD55B462146179A059800F09FF905448C
:103C300004E030205A46179990476D1C0099481EA1
:103C400000900029F5DC08E0029802995A460078B5
:103C5000491C0291179990476D1CBAF10001AAF115
:103C6000010AF1DC65E1000009280100303132333E
:103C700034353637383961626364656600000000A8
:103C80003031323334353637383941424344454692
:103C90000000000000F058F90544761C3078002838
:103CA0007FF4ECAD19B02846BDE8F08F620700D470
:103CB000062709F1070222F0070CFCE80223E1467F
:103CC00003F000485FEA080C02D00FF2702C0DE000
:103CD0005FEA045C02D50FF2682C07E05FEAC47C5F
:103CE00002D00FF2602C01E0AFF2700C4FF0FF3801
:103CF00023F00043CDF850C065280CD006DC4528E1
:103D000009D046281DD047283DD13DE0662818D06F
:103D100067287ED138E00021112F01DB112000E05F
:103D2000781CCDE9000106A90EA8FFF7DDFCDDE94E
:103D30000F010E9A03910021009207F1010A0491EC
:103D40004DE04FF000400097CDE9011006A90EA804
:103D5000FFF7CAFCDDE90F0203920E9B11990022C6
:103D6000DDF80CA00093049211B9791C00EB010A54
:103D7000B7EB0A0004D4C0F1FF3007F1010A049048
:103D8000AAEB0700019044E0012F00DA012700218F
:103D9000112F01DD112000E03846CDE9000106A910
:103DA0000EA8FFF7A1FCDDE90F010E9A0391002197
:103DB00004910092BA4621070CD40399514500DAC8
:103DC0008A46BAF1010F05DD009AAAF10101515CA2
:103DD000302908D0B84202DA10F1040F06DA0121C6
:103DE000CDE9011015E0AAF10101E9E7002805DCA1
:103DF000049901440491AAEB000102E0411C5145E1
:103E000000DD8A460499401A401C01904FF00040A2
:103E10000290200704D40198504501DBCDF80480BE
:103E200000208DF84F0002980DF14F07B0F1004FC0
:103E300025D02B200E9002984FF0020800280CDAB3
:103E4000404202902D200E9007E00A210298FCF7D4
:103E500079FC3031029007F8011DB8F10001A8F19A
:103E60000108F2DC02980028EFD1791E0E98087044
:103E7000307800F0200040F0450007F8020D12A84D
:103E8000C01B00F107081498007800B1012000EB76
:103E90000A01019801EBE07105984144401A401E67
:103EA0000590E00306D45B462146179A059800F07A
:103EB0005DF805441498007818B15A461799904750
:103EC0006D1CE00324D55B462146179A059800F047
:103ED0004DF805441CE00498002807DBDDE90301E8
:103EE000884203DD0098405C179901E01799302063
:103EF0005A469047049805F10105401C049001982A
:103F0000401E019004D12E205A46179990476D1CEF
:103F1000BAF10001AAF1010ADDDC05E017F8010B96
:103F20005A46179990476D1CB8F10001A8F1010895
:103F3000F4DC5B462146179A0598ABE62D0000009D
:103F40002B000000200000002DE9F0410446002570
:103F50001E461746880404D405E039462020B047A1
:103F60006D1C641EF9D52846BDE8F0812DE9F041AD
:103F7000044600251E469046C80301D5302700E0C0
:103F80002027880404D505E041463846B0476D1C1B
:103F9000641EF9D52846BDE8F0814A68002A06D09B
:103FA0000A68531C0B6010704868401E48607047D8
:103FB0000A68531C0B601070704700002DE9F84F21
:103FC00004460D4621F0004000917349814211DC06
:103FD0007249884201DC06D12CB120462946BDE851
:103FE000F84FFFF79DBA6E48002DCCBF6D496E4962
:103FF000BDE8F88F6D49814211DD6D498142D8BF1E
:104000004FF0FF366DDD20462946FFF70DFA0428F4
:1040100008BFFFF78BFA20462946BDE8F88F6549AF
:10402000654F25F00045814233DD6449814219DD49
:10403000002632464FF0804320462946FCF75AF9C5
:1040400080468A46012220462946FCF727FD0022A9
:104050003B46FCF7F0F942465346FCF764FA044647
:104060000D463EE001260022BA463B462046294640
:10407000FCF740F980460F46002253462046294669
:10408000FCF7D9F942463B46FCF74DFA04460D468B
:1040900027E04B4981421BDDDFF828A102260022E0
:1040A000534620462946FCF7CCF900223B46FCF754
:1040B00021F980460F460022534620462946FCF748
:1040C000BAF942463B46FCF72EFA04460D4608E094
:1040D000032622462B4600203B49FCF724FA0446DF
:1040E0000D4622462B4610461946FCF7AAF98B4688
:1040F000824602460B46FCF7A4F9074602463348BF
:1041000088460B4606217844FFF7B5F952465B46D0
:10411000FCF797F982462E488B463A4643460521DE
:104120007844FFF7A8F93A464346FCF78AF9024675
:104130000B46002E504659460CDAFCF7DBF82246B7
:104140002B46FCF77EF901B022462B46BDE8F04F26
:10415000FCF774B9FCF7CEF822462B46FCF771F950
:104160001C4A7A4402EBC603D3E90023FCF763F947
:1041700022462B46FCF75FF9174A7A4402EBC60346
:10418000D3E90023FCF75AF9009A002AB8BF81F05E
:104190000041BDE8F88F0000000010440000F07FEF
:1041A000182D4454FB21F93FFB21F9BF0000DC3FEF
:1041B0000000203E0000F33F0000F03F0000E63F1B
:1041C000008003400000F83F0000F0BF562F0000C1
:1041D000142F0000B22E00007A2E00002DE9F04DC1
:1041E0009446CCF1000423F000464CEA0404524FFC
:1041F00046EAD4749A46884621F00042BC4206D86A
:10420000454240EA050442EAD474BC4204D9BDE800
:10421000F04D6246FFF787B9AAF14055A5F17F65D9
:1042200055EA0C040BD0022404EAAA74434DDFF8CB
:1042300010E144EAD87452EA000B04D00CE0BDE867
:10424000F04DFFF7BBBE002C14BF012CBDE8F08D74
:10425000022C30D0032C32D056EA0C0B0AD0BE42CE
:1042600020D1BA4209D126F0804622F0804233465E
:10427000114617E000291ADB25E0DFF8C8B0FB443F
:10428000002C04BFDBE90001BDE8F08D012C02BF6A
:10429000DBE9000181F00041BDE8F08D022C0AD07D
:1042A000032C0CD0BA4212D1B8F1000F0BDA23481C
:1042B0002549BDE8F08D28462449BDE8F08D284603
:1042C0007146BDE8F08D1D482149BDE8F08D921B77
:1042D00012153C2AC4BF19481D490EDCBAF1000F63
:1042E000BEBF12F13C0F0020014606DB6246FCF720
:1042F0001AF921F00041FFF761FE002C08BFBDE86C
:10430000F08D012C04BF81F00041BDE8F08D114A11
:10431000114B022C07D0FCF78EF82A46BDE8F04D71
:104320000A4BFCF788B8FCF786F82A46BDE8F04D42
:10433000064BFCF783B800000000F07F182D4454B2
:10434000FB2109C00E2E0000FB21F9BFFB21094013
:10435000FB21F93F075C143326A6A13C10B56FF092
:104360000400FEF73DFD0A4800680A49B0FBF1F081
:10437000094908700846007800EB4001C1EBC01005
:104380004FF6FF7101EAC0000449088010BD00002B
:104390000000002000127A00280000202A000020DF
:1043A0000146114A12884A434FF0E0235A61002225
:1043B0009A611A46126942F001021A6100BF4FF079
:1043C000E022106900F001021AB100F48032002AE4
:1043D000F5D04FF0E022126922F001024FF0E02305
:1043E0001A6100229A6170472A0000200146114A92
:1043F00012784A434FF0E0235A6100229A611A462C
:10440000126942F001021A6100BF4FF0E022106908
:1044100000F001021AB100F48032002AF5D04FF00A
:10442000E022126922F001024FF0E0231A6100221B
:104430009A61704728000020F0B502460E4600241D
:104440004FF4802300200DE052F82070A74201D9DC
:1044500052F8204052F820709F4201D252F820308A
:10446000471CB8B2FF28EFDDE71A4FF0140CB7FB7A
:10447000FCF5002013E0470052F827704FF0010CC4
:104480000CEB400C52F82CC007EB0C014908C91A80
:10449000B1FBF5F1142900D91421471CB8B28028CA
:1044A000E9DBF0BDFCF7AEFDFCF74CFB07E023A316
:1044B00008220A210120FDF76AFFFEF765F9FDF7E2
:1044C0001FF80428F3D137E000F07AFC0446012CF1
:1044D00001D101F00FFA022C01D101F07FF9032C78
:1044E00001D101F005F8042C01D101F077F8052C79
:1044F00001D100F09FFF062C19D1002516A3082238
:104500000A210120FDF743FFFEF73EF90CE0681C8D
:1045100080B20546322807DBFCF7F2FF042800D101
:1045200003E0FCF717FC0025F1E700BF00BF072CF4
:1045300001D100F0E5FE00BFC6E70000E4BABAE42E
:10454000BD93E581A5E5BAB7E6A380E6B58BE7B3F1
:10455000BBE7BB9F0000000053656E64204461749C
:1045600061202E2E2E00000070B50446FCF74AFF95
:10457000AE20FCF713FFFCF791FF00B119E02046D5
:10458000FCF70CFFFCF78AFF00B112E0FCF73AFFE2
:10459000AF20FCF703FFFCF781FF00B109E000202A
:1045A000FCF7C4FE0546FCF799FEFCF751FF2846D0
:1045B00070BDFCF74DFF0020FAE770B505460C46CC
:1045C000FCF720FFAE20FCF7E9FEFCF767FF00B127
:1045D00011E02846FCF7E2FEFCF760FF00B10AE0BC
:1045E0002046FCF7DBFEFCF759FF00B103E0FCF7C7
:1045F0002FFF012070BDFCF72BFF0020FAE770B5FC
:1046000005460C460020FFF7AFFF0120FFF7ACFF87
:10461000FCF7F8FEAE20FCF7C1FEFCF73FFF00B14F
:104620002AE02846FCF7BAFEFCF738FF00B123E089
:10463000FCF7E8FEAF20FCF7B1FEFCF72FFF00B15E
:104640001AE00120FCF772FE20700120FCF76EFEDC
:1046500060700120FCF76AFEA0700120FCF766FE86
:10466000E0700120FCF762FE20710020FCF75EFE86
:104670006071FCF7EDFE00BFFCF7EAFE70BD0000C4
:1046800008B501210820FEF741F92020ADF800000F
:1046900048208DF8030069461948FCF713FCFCF725
:1046A000FDFD00F02FF8C0210220FFF786FF00215A
:1046B0000320FFF782FF00210420FFF77EFF002187
:1046C0000520FFF77AFF00210620FFF776FF0F2174
:1046D0000820FFF772FF03210920FFF76EFF272153
:1046E0000A20FFF76AFF24210C20FFF766FF242130
:1046F0000D20FFF762FF7F211020FFF75EFF08BD4E
:10470000000C014010B540210920FFF756FF402161
:104710000920FFF752FF10BD2DE9F84705460C466A
:1047200016461F46DDE90A9ADDF824803B463246EC
:1047300021462846CDF8008000F090FA4B463246DC
:104740002146284600F0C7FA2068504501DA206863
:1047500000E050462060BDE8F88700002DE9FF4FDB
:10476000C6B08846994600204590002406E0469849
:1047700050F82410459808444590641C4445F6DBE5
:104780004598B0FBF8F04590002408E0469850F8B2
:1047900024104598081AFE4941F82400641C444539
:1047A000F4DB002417E0FA4850F824100246601C9D
:1047B00052F820000144A01C52F820000144E01CE3
:1047C00052F820000F183846F91707EB917189103D
:1047D00042F82410641CB4F5F87FE4DB00240AE0FE
:1047E000EB49601C51F8200051F82410401AE949A7
:1047F00041F82400641CB4F5F77FF1DD00240EE0DD
:10480000E44951F824200B46611C53F8211050183C
:1048100000EBD07149101A4642F82410641CB4F51C
:10482000F77FEDDB00251BE0002043902C460BE0DA
:10483000D84850F82410601BD74A32F8102043980B
:1048400001FB12004390641C681D8442F0DB40F2BF
:104850007A41439890FBF1F0CE4941F825006D1C58
:10486000B5F5F47FE0DD00204190002410E0C94858
:1048700050F82400002803DDC64850F8240003E067
:10488000C44850F824004042419908444190641CB7
:10489000B4F5F77FEBDD40F2EF11419890FBF1F0BA
:1048A000419005210822419840F2EF13CDE9012102
:1048B0000090B84A40A912A8FFF72EFF00201190DF
:1048C0004098022821DB01240BE012A850F82410A4
:1048D000601E12AA52F82000091A1198084411907B
:1048E000641C40988442F0DB4098401E119991FB73
:1048F000F0F0119041F27071119891FBF0F1549821
:10490000016001215598017005E0A44954980160A7
:10491000002155980170002407E012A850F82400E7
:10492000801C30A941F82400641C40988442F4DBC8
:1049300000240CE0469850F82400954941F82400E2
:10494000489850F82400964941F82400641C4445D6
:10495000F0DB0020429000242DE00120449030A89C
:1049600050F824A04FF080703F900AF10500B0F598
:10497000F77F1FDC0A3800281CDD054611E084485B
:1049800050F825103F9881420ADA449808B1002077
:1049900044907F4850F825003F9021A840F82450CB
:1049A0006D1C0AF105008542E9DB449810B9429874
:1049B000401C4290641C40988442CEDB42980228FE
:1049C00008DA7648C9F800000021539801704AB00F
:1049D000BDE8F08F00242EE06D4951F824200B46ED
:1049E000611C53F821100A44A11C53F821100A44F9
:1049F000E11C53F821105018C11700EB9171891078
:104A00001A4642F82410664951F824200B46611CCE
:104A100053F821100A44A11C53F821100A44E11C48
:104A200053F821105018C11700EB917189101A46E4
:104A300042F82410641CB4F5F87FCDDB002004900C
:104A40000026002404E0002005A941F82400641C8D
:104A5000052CF8DB00240DE021A850F82400B0F567
:104A6000FA7F06DD4D48C9F8000000215398017017
:104A7000ADE7641C42988442EEDB0024AFE04FF0C7
:104A80007F400D900C9021A9601C51F8200051F836
:104A90002410401A0A2879DD21A850F8245016E085
:104AA0003B4850F825100C98814204DD384850F8F6
:104AB00025000C900A953A4850F825100D9881422F
:104AC00004DD374850F825000D900B956D1C21A989
:104AD000601C51F82000A842E2DC601C51F8200064
:104AE0002F4951F8200021A951F824102C4A52F8DE
:104AF0002110401A21A951F824200B99891A484302
:104B0000109021A9601C51F8200051F82410411A7E
:104B1000109890FBF1F021A951F82410204A52F886
:104B200021100844109011460B9851F8201010984D
:104B3000081A109021A9601C51F82000144951F85E
:104B4000200021A951F82410114A52F82110401ACE
:104B500021A951F824200A99891A48430F9021A9C4
:104B6000601C51F8200051F82410411A0F9890FB56
:104B7000F1F021A951F82410054A52F821100844F7
:104B80000F9011460B9851F820100BE026E0000022
:104B9000680C0020A8040020026F000819FCFFFF29
:104BA000381400200F98081A0F900C991098484359
:104BB000C01103900D990F984843C711002F0DDDC8
:104BC000052E0BDA039848B1039800EB80008000B3
:104BD00090FBF7F005A941F82600761C641C42986A
:104BE000401EA0423FF74BAF314605A800F0ACF89D
:104BF000304606EBD0714FEA610BBBF1010F0CDDC3
:104C0000ABF1010105AA52F8211052F82B208818A7
:104C100000EBD0714910049103E005A850F82B0077
:104C20000490049802280DDD0498B8280ADA09498E
:104C30000498085C0E900E98C9F800000121539862
:104C4000017005E00448C9F8000000215398017084
:104C500000BFBCE6406F000819FCFFFFF0B5054639
:104C60001C46059E012000270F6030E052F820709E
:104C7000B7422BDD52F820C0471E52F82770BC45C2
:104C800024DD012300E05B1CC718A74207DA52F8B5
:104C9000207000EB030C52F82CC06745F3D052F89B
:104CA000207000EB030C52F82CC067450CDD0F6838
:104CB0000F2F09DAD1F800C00CF101070F6045F899
:104CC0002C005F1C384402E0184400E0401C671EC2
:104CD0008742CBDCF0BD2DE9F04F05460C469246ED
:104CE000984629465046226800F049F84FF0FF36B2
:104CF00021E0D4F800B0701C2060771C18E055F853
:104D00002710701C10B94FF0FF3001E055F8260055
:104D1000A1EB0009C14503DCC8F10000814506DABA
:104D200055F827102268501C206045F822107F1C7F
:104D30005F45E4DB761C2068B042DADC2846216857
:104D400000F002F8BDE8F08F30B50C46012213E008
:104D500050F82230114605E04D1E50F8255040F81D
:104D60002150491E002904DD4D1E50F825509D425A
:104D7000F2DC40F82130521CA242E9DB30BDF0B534
:104D800003461546012217E051F82240104605E07F
:104D9000461E51F8266041F82060401E002808DDBC
:104DA00053F82470461E51F8266053F82660B74227
:104DB000EEDC41F82040521CAA42E5DBF0BD0000C9
:104DC0001FB5FDF7D3F9FDF7DFFC0823F7A200219B
:104DD0000846FDF7F7FB0823F9A210210020FDF794
:104DE000F1FB0823FBA220210020FDF7EBFB0823A9
:104DF000FEA230210020FDF7E5FBFDF7C5FC7BE2BC
:104E0000FCF77EFBFE4908700846007801280ED1A9
:104E1000FC480078401EFB4908700846007808B935
:104E2000082008700120F8490870FDF7C9F8F44817
:104E3000007803280FD1F3480078401CF14908702E
:104E400008460078092801D1012008700220EE49A7
:104E50000870FDF7B5F8EA480078022809D1FDF797
:104E600085F9FDF791FCFDF7ABF8E648007804B052
:104E700010BDE448007809283FD2DFE800F03E0585
:104E80003F79B5F6F4F3F2000823C8A200210846E2
:104E9000FDF798FB0823CAA210210020FDF792FB22
:104EA0000823CCA220210020FDF78CFB0823CFA2F1
:104EB00030210020FDF786FBD348007802280BD173
:104EC00010202021002200921346CDE901210390F9
:104ED00011461046FDF77AF8CB48007801280CD12E
:104EE00010202021002200920346CDE901210390E9
:104EF0000A4601460020FDF769F8FCE10823ABA251
:104F000000210846FDF75EFB0823ADA2102100201A
:104F1000FDF758FB0823AFA220210020FDF752FB2C
:104F20000823B2A230210020FDF74CFBB6480078E0
:104F300002280CD1102020210023CDE900300346A7
:104F40000A46CDE9021000210846FDF73FF8AE48B9
:104F5000007801280BD1102020210023CDE900305A
:104F600003464022CDE902100020FDF72FF8C2E1F0
:104F700008238EA200210846FDF724FB082390A2F7
:104F800010210020FDF71EFB082392A22021002003
:104F9000FDF718FB082395A230210020FDF712FB36
:104FA0009948007802280CD11020402120220023AB
:104FB000CDE90032CDE90210034601460020FDF79D
:104FC00005F89148007801280DD1102040212022B9
:104FD0000023CDE90032CDE902100346382230210A
:104FE0000020FCF7F3FF86E1082370A200210846A9
:104FF000FDF7E8FA082372A210210020FDF7E2FA7B
:10500000082374A220210020FDF7DCFA082377A2F0
:1050100030210020FDF7D6FA7B48007802280DD118
:105020001020382130220023CDE90032CDE90210D2
:105030000346402220210020FCF7C8FF7248007878
:1050400001280DD11020402130220023CDE900326B
:10505000CDE902100346182200210846FCF7B6FFEE
:1050600049E10AE175E03AE0FFE7082367A2002181
:105070000846FDF7A7FA082369A210210020FDF7D2
:10508000A1FA08236BA220210020FDF79BFA082338
:105090006DA230210020FDF795FA5B4800780228C8
:1050A0000BD110201821002200921346CDE90121D6
:1050B000039011461046FCF789FF534800780128F9
:1050C0000CD110201821002200920346CDE90121C5
:1050D0000390202201460020FCF778FF0BE1082313
:1050E0004AA200210846FDF76DFA08234CA21021C0
:1050F0000020FDF767FA08234EA220210020FDF7CB
:1051000061FA082350A230210020FDF75BFA3E48E7
:10511000007802280CD1102020210023CDE9003096
:1051200003461822CDE9021000210846FCF74EFF85
:105130003548007801280BD1102020210023CDE92B
:10514000003003460A46CDE902100020FCF73EFF7E
:10515000D1E008232DA200210846FDF733FA0823E9
:105160002FA210210020FDF72DFA082331A22021C3
:105170000020FDF727FA082333A230210020FDF795
:1051800021FA2148007802280CD110202021002388
:10519000CDE9003103460A46CDE902100146002060
:1051A000FCF714FF18480078012857E0E4BD93E6A7
:1051B000B8A920202020202020202020202000000E
:1051C000E8A180E58E8B2020202020202020202098
:1051D00020200000E5BF83E78E87E8A180E6B0A726
:1051E0002020202020202020000000004D50553697
:1051F00030353020202020202020202000000000FA
:1052000071000020730000207200002047505320DE
:10521000202020202020202020202020000000000E
:1052200057494649202020202020202020202020CF
:105230000000000054696D652020202020202020DF
:105240002020202000000000536574696E67202034
:105250002020202020202020202000000CD1102001
:1052600020210023CDE9003103463022CDE9021090
:1052700011460020FCF7AAFE3DE00823AFF27402BD
:1052800000210846FDF79EF90823AFF26C021021B9
:105290000020FDF797F90823AFF2680220210020D3
:1052A000FDF790F90823AFF2600230210020FDF7EE
:1052B00089F91248007802280CD1102030210023EF
:1052C000CDE9003103462022CDE90210114600202D
:1052D000FCF77CFE0948007801280BD11020302112
:1052E0000023CDE900311A46CDE9021040211846CD
:1052F000FCF76CFE00BF00BF82E5000072000020DA
:105300001FB5082337A200210846FDF75BF93A488C
:10531000808839494988384A128838A3CDE9002164
:105320000290082210210020FDF731F83248408910
:1053300031490989304AD28834A3CDE9002102904D
:10534000082220210020FDF722F8082333A2302173
:105350000020FDF737F9102000220092CDE901204E
:105360001346114603901046FCF730FEFDF70CFA89
:1053700037E0FCF7BDFDFCF7C3F82D49087008467F
:105380000078022808D1FCF7F1FEFDF7FDF9FCF7E3
:1053900017FE002004B010BD1748808816494988C0
:1053A000154A128815A3CDE9002102900822102188
:1053B0000020FCF7ECFF1048418900890E4AD28892
:1053C00012A3CDE900200291082220210020FCF741
:1053D000DEFF082311A230210020FDF7F3F8FDF7CE
:1053E000D3F9C6E73C2D202020202020202020209B
:1053F00020202020202020002C0000204461746107
:105400003A25642D25642D256400000054696D65DE
:105410003A25643A25643A256400000020202020C3
:105420002020202020202020E8AEBEE7BDAE0000D6
:10543000710000201FB508231CA200210846FDF7BB
:10544000C1F81FA3082210210020FCF7A0FF1FA312
:10545000082220210020FCF79AFF20A308223021F7
:105460000020FCF794FF102000220092CDE90120DB
:105470001346114603901046FCF7A8FDFDF784F98A
:1054800012E0FCF73DF81949087008460078022838
:1054900008D1FCF76BFEFDF777F9FCF791FD0020D2
:1054A00004B010BDFDF770F9EBE700003C2D2020A3
:1054B000202020202020202020202020202020000C
:1054C000475053E5AE9AE4BD8D3A00003335C2B083
:1054D00030382734372E3939224E0000313133C26B
:1054E000B035372734392E38362245007100002078
:1054F00000B587B0082327A200210846FDF762F80F
:105500009DF8180028A30822202100900020FCF715
:105510003EFF9DF814002AA30822302100900020AD
:10552000FCF735FF102000220092CDE90120134640
:10553000114603901046FCF749FDFDF725F928E0D8
:1055400005A906A8FCF7F8F8FBF7DAFF224908706E
:1055500008460078022808D1FCF708FEFDF714F988
:10556000FCF72EFD002007B000BD9DF818000EA32B
:105570000822202100900020FCF709FF9DF814006C
:105580000FA30822302100900020FCF700FFFDF758
:10559000FBF8D5E73C2D20202020202020202020B3
:1055A0002020202020202000E5BF83E78E873A2599
:1055B0003033642F6D696E20202020200000000011
:1055C000E8A180E6B0A73A253033642525202020C5
:1055D00020202020000000007100002030B58FB096
:1055E00008235BA200210846FCF7ECFF0898FBF7B4
:1055F0004EF85CA30822CDE9000110210020FCF741
:10560000C6FE0798FBF743F85CA30822CDE900012A
:1056100020210020FCF7BBFE5EA3082230210020E1
:10562000FCF7B5FE102000220092CDE901201346C0
:10563000114603901046FCF7C9FCFDF7A5F885E07C
:105640000CAA0DA90EA8FCF713FB09AA0AA90BA81E
:10565000FCF731FB06A807A908AABDF92430CDE95B
:105660000132CDE90310BDF928000090BDF92C30BE
:10567000BDF93020BDF93410BDF93800FCF7D6F97A
:105680004B490798FBF74AF80ED34A490798FBF7AE
:105690004FF809D346490898FBF740F804D3454929
:1056A0000898FBF745F81AD2FBF718FA022142488E
:1056B000FBF79CFC6420FEF773FEFBF707FA022160
:1056C0003D48FBF795FC6420FEF76AFE3BA30822E9
:1056D00030210020FCF75BFEFDF756F80DE0FBF7EC
:1056E000F5F902213448FBF783FC2AA30822302174
:1056F0000020FCF74CFEFDF747F8FBF701FF3649A9
:10570000087008460078022808D1FCF72FFDFDF745
:105710003BF8FCF755FC00200FB030BD0898FAF7B5
:10572000B6FF10A30822CDE9000110210020FCF7EC
:105730002EFE0798FAF7ABFF10A30822CDE900016F
:1057400020210020FCF723FEFDF71EF878E700007B
:105750003C2D202020202020202020202020202020
:1057600020202000E4BFAFE4BBB0E8A7923A252E8A
:10577000326620202020202020000000E5818FE8D4
:1057800088AAE8A7923A252E3266202020202020E1
:1057900020000000E88081E4BABAE78AB6E680819A
:1057A0003A20E69CAAE8B78CE58092202000000011
:1057B00000008CC200008C4200080140E88081E4B7
:1057C000BABAE78AB6E680813A2020E8B78CE5804D
:1057D0009221202000000000710000202DE9F041FE
:1057E00086B0082335A200210846FCF7EBFE38A35B
:1057F000082210212020FCF7CAFD4FF080410498B8
:10580000FAF702FD8046FAF742FF04460D464FF0D4
:1058100080410598FAF7F8FC8046FAF738FF30A384
:1058200008228DE8330020210020FCF7B0FD102075
:1058300000220092CDE90120134611460390104644
:10584000FCF7C4FBFCF7A0FF37E004A905A8FBF7B1
:105850004DF9FBF755FE26490870084600780228E6
:1058600009D1FCF783FCFCF78FFFFCF7A9FB0020B4
:1058700006B0BDE8F08116A3082210212020FCF715
:1058800086FD4FF080410498FAF7BEFC8046FAF797
:10589000FEFE04460D464FF080410598FAF7B4FC31
:1058A0008046FAF7F4FE0EA308228DE8330020218B
:1058B0000020FCF76CFDFCF767FFC6E73C2D2020BD
:1058C00020202020202020202020202020202000F8
:1058D000E8A180E58E8BE6A380E6B58B0000000092
:1058E000252E31662F252E3166206D6D486700000C
:1058F000710000207FB5082331A200210846FCF783
:1059000061FE34A3082210212020FCF740FD304620
:10591000FAF7BDFE33A30822CDE9000120211E20A5
:10592000FCF735FD102000220092CDE9012013463E
:10593000114603901046FCF749FBFCF725FF3DE0BC
:10594000FDF794FA064629493046FAF7F1FE11D2DE
:10595000FBF7C4F802212648FBF748FB6420FEF75A
:105960001FFDFBF7B3F802212148FBF741FB642040
:10597000FEF716FDFBF7C4FD1E49087008460078C7
:10598000022808D1FCF7F2FBFCF7FEFEFCF718FB3F
:10599000002004B070BD0FA3082210212020FCF7C6
:1059A000F6FC3046FAF773FE0EA30822CDE900019B
:1059B00020211E20FCF7EBFCFCF7E6FEC0E7000010
:1059C0003C2D2020202020202020202020202020AE
:1059D00020202000E4BD93E6B8A9E6A380E6B58BBD
:1059E00000000000252E3266C2B0430000001842BD
:1059F00000080140710000202DE9F84304460246EA
:105A000052486946B0EB420F09D94FF0E640B0EB7F
:105A1000420F94BF00204FF0FF30009030E04C4B1D
:105A200022F00040834271D94A492046FAF7F2FB3E
:105A3000FAF783FF8046FAF711FE00F003000090AA
:105A400045494046FAF7E6FB054644494046FAF721
:105A5000E1FB064642494046FAF7DCFB074641496E
:105A60004046FAF7D7FB2146FAF7D1FB3946FAF759
:105A7000CBFB3146FAF7C8FB2946FAF7C5FB0446CB
:105A80002546009C002C45DB294614F0010F0846F2
:105A90001ED0FAF7BFFB05463349FAF7BBFB334983
:105AA000FAF760FB2946FAF7B5FB3149FAF75AFBDA
:105AB0002946FAF7AFFB4FF07E51FAF753FB14F08B
:105AC000020F08BFBDE8F88380F00040BDE8F8830E
:105AD000FAF7A0FB06462749FAF79CFB2649FAF796
